:020000040800F2
:100000000050002069070008B1070008B107000888
:10001000B1070008B1070008B107000800000000A0
:10002000000000000000000000000000B107000810
:10003000B107000800000000B1070008F31900082C
:10004000B1070008B1070008B1070008B1070008B0
:10005000B1070008B1070008B1070008B1070008A0
:10006000B1070008B1070008B1070008B107000890
:10007000B1070008B1070008B1070008B107000880
:10008000B1070008B1070008B1070008B107000870
:10009000B1070008B1070008B1070008B107000860
:1000A000B1070008B1070008B1070008B107000850
:1000B000950600087D180008B1070008B107000880
:1000C000B1070008B1070008B1070008B107000830
:1000D000B1070008A9150008BD150008D1150008D2
:1000E000B1070008B1070008B107000800000000D0
:1000F0000000000000000000000000000000000000
:0C01000000000000000000005FF808F1A3
:10010C0010B5054C237833B9044B13B10448AFF345
:10011C0000800123237010BD780000200000000037
:10012C00BC1C0008084B10B51BB108490848AFF3BC
:10013C0000800848036803B910BD074B002BFBD0A7
:10014C00BDE81040184700BF000000007C000020F4
:10015C00BC1C00087400002000000000034613F8CB
:10016C00012B002AFBD1181A0138704753B94AB930
:10017C00002908BF00281CBF4FF0FF314FF0FF30A3
:10018C0000F082B9ADF1080C6DE904CE00F006F870
:10019C00DDF804E0DDE9022304B070472DE9F04FEF
:1001AC008C460C460546099E002B4FD18A421746B9
:1001BC006BD9B2FA82FEBEF1000F0BD0CEF1200546
:1001CC0020FA05F501FA0EF345EA030C02FA0EF7D4
:1001DC0000FA0EF5390CBCFBF1F0BAB201FB10C3FE
:1001EC0000FB02F84FEA154C4CEA0344A04509D930
:1001FC00E41900F1FF3380F02881A04540F22581FD
:10020C0002383C44C8EB0404B4FBF1F301FB134C7F
:10021C0003FB02F2ACB244EA0C418A4209D9C91977
:10022C0003F1FF3480F00F818A4240F20C81023BD3
:10023C0039448A1A43EA00400021002E63D022FA86
:10024C000EF2002386E80C00BDE8F08F8B4207D934
:10025C00002E56D0002186E811000846BDE8F08F2C
:10026C00B3FA83F1002940F09380A34202D3824277
:10027C0000F2FE80851A64EB03039C460120002EDD
:10028C0041D086E82010BDE8F08F12B90127B7FBEA
:10029C00F2F7B7FA87FEBEF1000F36D1E41B4FEA36
:1002AC0017481FFA87F90121B4FBF8F308FB134434
:1002BC0009FB03F24FEA154C4CEA0444A24207D95D
:1002CC00E41903F1FF3002D2A24200F2D3800346BC
:1002DC00A41AB4FBF8F008FB104809FB00F9ACB207
:1002EC0044EA0842914507D9D21900F1FF3402D2F1
:1002FC00914500F2BA802046C9EB020240EA034065
:10030C009BE731463046BDE8F08F07FA0EF7CEF189
:10031C00200C24FA0CF34FEA1748B3FBF8FA1FFA37
:10032C0087F908FB1A3520FA0CFC04FA0EF40AFBC8
:10033C0009FB4CEA040C4FEA1C4242EA05439B457C
:10034C0000FA0EF50AD9DB190AF1FF3280F08B8026
:10035C009B4540F28880AAF1020A3B44CBEB030395
:10036C00B3FBF8F008FB103300FB09F41FFA8CFC0C
:10037C004CEA03439C4207D9DB1900F1FF326ED2E1
:10038C009C426CD902383B441C1B40EA0A418BE767
:10039C00C1F1200E8B4022FA0EFC4CEA030C24FA1D
:1003AC000EF74FEA1C49B7FBF9FA1FFA8CF309FB5D
:1003BC001A7720FA0EF88C400AFB03F548EA04047D
:1003CC004FEA144848EA0747BD4202FA01F200FA24
:1003DC0001FB09D917EB0C070AF1FF3041D2BD42E2
:1003EC003FD9AAF1020A67447F1BB7FBF9F509FB59
:1003FC00157705FB03F3A4B244EA0747BB4208D9BF
:10040C0017EB0C0705F1FF3027D2BB4225D9023D73
:10041C00674445EA0A40A0FB0289FF1A4F4545464E
:10042C004C4614D329D066B3BBEB050367EB04072A
:10043C0007FA0EFECB40CF404EEA030386E8880055
:10044C000021BDE8F08F2346F3E61846DAE6B8EB58
:10045C00020569EB0C040138E5E70546D9E71046BF
:10046C0092E78246C0E7924678E702383A4443E77F
:10047C00084604E7023B3C442AE7C345E7D33C4625
:10048C00D1E73146BDE8F08F704700BF044B9A6846
:10049C0012F4805F4FF480520CBF1A615A6170479E
:1004AC00000C014010B50D4C062220464FF4E131F2
:1004BC0000F072FF0A49204600F084FE01211C2046
:1004CC0001F066F9074C084B2046636000F054F8C5
:1004DC002046BDE81040054900F0AAB8DC01002018
:1004EC00D41C0008980000209904000840420F001A
:1004FC0038B500F0E9F941F28735044600F0E4F92B
:10050C00001BA84202D800F04EF9F7E71449154831
:10051C0000F058FE1449134800F048FE134800F050
:10052C00A3F80A2201460F4800F0A5FE10490D4819
:10053C0000F03CFE0D4800F075F80A22014609480F
:10054C0000F099FE0B49074800F030FE074800F018
:10055C006CF8BDE8384001460A22024800F08BBE18
:10056C00E91C0008DC010020EE1C000898000020AB
:10057C00041D0008151D0008036813B5B3F1804F66
:10058C0015D103F50433DA69416842F00102DA61EE
:10059C00DB6903F001030193019B1F4B186031B120
:1005AC001E4B002283F81C234FF080521A6042F23B
:1005BC000F7103681A6822F070021A60184A1268E8
:1005CC008A4285BF42F21071B2FBF1F1002101F1B8
:1005DC00FF319962996A52080131B2FBF1F1092994
:1005EC0081BF9C6A0A2104FB0111B2FBF1F294BF9A
:1005FC00002202F1FF32DA6242681AB1DA6842F084
:10060C000102DA601A6842F001021A605A6942F07B
:10061C0001025A6102B010BD9400002000E100E01C
:10062C000C0000200368986A70470368D86A70470A
:10063C00026821B901239362D362D06A7047084BD8
:10064C0008481B68B3FBF0F04FF6FF734843B0FB50
:10065C00F3F30133B0FBF3F09362D062704700BF49
:10066C000C00002040420F0038B5102000F018FE9E
:10067C00054600F0BBFCA86810214400284600F099
:10068C0011FE204638BD0000064B1B684BB11A68A2
:10069C001169C90705D55B686FF00101116103B1E0
:1006AC001847704794000020024B4FF080421A60AC
:1006BC00704700BF98000020244A10B5136823F03F
:1006CC00070343F002031360214B1A6842F4803293
:1006DC001A605A6822F47C1242F4E8125A601A68C2
:1006EC0042F080721A605A6822F0F0025A605A681E
:1006FC0022F4E06242F480625A605A6822F460523A
:10070C005A605A6822F0030242F002025A605A6898
:10071C0022F480025A605A6802F00C02082AFAD1BC
:10072C000C4C0D4800F072FC23680B4843F004039A
:10073C00236000F079FC002211464FF0FF3000F0EE
:10074C008BFC236843F00203236010BD00200240A1
:10075C000010024010E000E000A24A04002103E077
:10076C000B4B5B58435004310A480B4B42189A42CE
:10077C00F6D30A4A02E0002342F8043B084B9A42A3
:10078C00F9D300F0C5FC01F06DF900F07FFD704766
:10079C00941F000800000020740000207800002046
:1007AC00FC020020FEE770470A4910B50B6818449C
:1007BC00EFF30882904205D9074B0C221A604FF0D8
:1007CC00FF3010BD054C064A121B9042F4D2086053
:1007DC00184610BD00000020F802002000040000A4
:1007EC0000500020024B1F221A604FF0FF30704760
:1007FC00F80200204FF0FF3070474FF400534B606D
:10080C00002070470120704700207047002070477F
:10081C00FEE70000024B16221A604FF0FF307047C3
:10082C00F80200204FF0FF3070470368DA6822F4BA
:10083C009072DA605A6922F001025A61202380F822
:10084C003A30704738B50E4B054618784FF47A732A
:10085C00B3FBF0F30B4A1068B0FBF3F000F03CFC78
:10086C00044658B90F2D09D8024629464FF0FF30DF
:10087C0000F0F2FB044B20461D6038BD012038BD52
:10088C00080000200C00002004000020074A08B5D6
:10089C001368032043F01003136000F0CBFB0F2010
:1008AC00FFF7D0FF01F0A6F8002008BD00200240A1
:1008BC00034A0449136809780B441360704700BF5E
:1008CC00C802002008000020014B1868704700BFC8
:1008DC00C802002090F8213010B5022B03D004235D
:1008EC008363012010BD03681A6822F00E021A609F
:1008FC001A6822F001021A60184A934213D014327B
:10090C00934212D01432934211D01432934211D02C
:10091C001432934211D0143293420CBF4FF4801313
:10092C004FF080730BE0012309E0102307E04FF434
:10093C00807304E04FF4805301E04FF48033084A95
:10094C0000245360012380F82130436B80F8204051
:10095C0013B19847204610BD184610BD0800024040
:10096C00000002402DE9F74F00242646624BDFF8C9
:10097C0094E1DFF894C101220D68B24032EA05051A
:10098C0040F0B3804D68122D28D00ED8022D22D005
:10099C0004D835B3012D2DD1CC682BE0032D18D004
:1009AC00112D27D1CC68043424E0544FBD4218D00B
:1009BC0006D8DFF85881454513D008F5803805E096
:1009CC0075450ED065450CD0DFF84481454511D1F5
:1009DC0007E000240EE0CC6808340BE0CC680C3443
:1009EC0008E08C682CB1012C0CBF02614261082418
:1009FC0000E00424FF2A97BF8346A6F10805D0F82F
:100A0C000090B50084BFD0F80490AD004FF00F08F3
:100A1C0008FA05FA29EA0A0904FA05F588BF00F173
:100A2C00040B49EA0505CBF80050D1F8049019F0F5
:100A3C00805F5AD0324D324FAD6906F0030A45F053
:100A4C000105BD61BD694FEA8A0A05F001050195F2
:100A5C00019D26F0030505F1804505F58035D5F897
:100A6C0008B0A7F5843708FA0AF8B8422BEA080848
:100A7C0010D007F58067B8420FD007F58067B842F1
:100A8C000ED007F58067B8420CBF4FF0030B4FF048
:100A9C00040B07E04FF0000B04E04FF0010B01E0FA
:100AAC004FF0020B0BFA0AFA4AEA080AC5F808A03A
:100ABC001D6819F4803F14BF154395431D605D6894
:100ACC0019F4003F14BF154395435D609D6819F4FC
:100ADC00801F14BF154395439D60DD6819F4001FFA
:100AEC0014BF2A4325EA0202DA600136102E7FF485
:100AFC0042AF03B0BDE8F08F0004014000002110AC
:100B0C0000100240000031100000321000001110E3
:100B1C0000002210044B054A5B68C3F30223D35C2C
:100B2C00034A1068D840704700100240331D00087B
:100B3C000C000020044B054A5B68C3F3C223D35C52
:100B4C00034A1068D840704700100240331D00085B
:100B5C000C0000202DE9F047056881682B69804660
:100B6C0023F44052C3684FF0190A13432B610369F5
:100B7C00EA6819434369194322F4B05323F00C0378
:100B8C000B43EB606B6923F44072836913436B6115
:100B9C00404B9D4234D1FFF7CDFF0AFB00F0D8F853
:100BAC0004606427B600B0FBF6F6FFF7C3FF0AFB40
:100BBC0000F0D8F80440B6FBF7F6A400B0FBF4F450
:100BCC00FFF7B8FF0AFB00F0D8F8043036019B00A1
:100BDC00B0FBF3F0B0FBF7F007FB1044FFF7AAFFF4
:100BEC0024013234B4FBF7F40AFB00F0D8F80430DB
:100BFC0004F0F0049A00B0FBF2F9FFF79BFF33E02E
:100C0C00FFF788FF0AFB00F0D8F804606427B600F1
:100C1C00B0FBF6F6FFF77EFF0AFB00F0D8F80440B5
:100C2C00B6FBF7F6A400B0FBF4F4FFF773FF0AFB76
:100C3C0000F0D8F8043036019B00B0FBF3F0B0FBA9
:100C4C00F7F007FB1044FFF765FF24013234B4FBC7
:100C5C00F7F40AFB00F0D8F8043004F0F0049A0022
:100C6C00B0FBF2F9FFF756FF0AFB00F1D8F80400CD
:100C7C008000B1FBF0F0B0FBF7F007FB1092120113
:100C8C003232B2FBF7F303F00F0323441E44AE6081
:100C9C00BDE8F08700380140704710B5044640B3FA
:100CAC0090F8393003F0FF021BB980F83820FFF7B9
:100CBC00F3FF2268242384F83930D368204623F4C8
:100CCC000053D360FFF746FF236800201A6922F413
:100CDC0090421A615A6922F02A025A61DA6842F487
:100CEC000052DA602023E06384F8393084F83A301B
:100CFC0010BD012010BD90F83930202B18D1A9B1AE
:100D0C00A2B190F83830012B12D0C28401628284D7
:100D1C00002301682122C36380F83920CA6880F857
:100D2C00383042F08002CA60184670470120704784
:100D3C000220704790F83A30202B20D1E9B1E2B173
:100D4C0090F83830012B1AD0C285828500232222DC
:100D5C00C36380F83A2002688162D16880F8383029
:100D6C0041F48071D1605169184641F00101516123
:100D7C00D16841F02001D1607047012070470220FA
:100D8C00704790F83A3010B5222B36D18368016940
:100D9C00B3F5805F0268836A0BD1526821B9C2F344
:100DAC00080223F8022B02E0D2B223F8012B836253
:100DBC000AE019B9591C8162526804E05268591C46
:100DCC00816202F07F021A70C48D013CA4B2C4850A
:100DDC00ACB90368DA6822F02002DA60DA6822F42F
:100DEC008072DA605A6922F001025A61202380F87D
:100DFC003A3000F00BFC204610BD022010BD002044
:100E0C0010BD0000036870B51A6804461607D9684F
:100E1C005D6907D196065AD58D0658D5BDE8704048
:100E2C00FFF7AFBF15F0010002D111F4907F4ED047
:100E3C00D30705D5CE0542BFE36B43F00103E36353
:100E4C00550704D518B1E36B43F00203E363930732
:100E5C0004D518B1E36B43F00403E363160704D520
:100E6C0018B1E36B43F00803E363E36B002B66D02C
:100E7C00950604D5880602D52046FFF782FF236825
:100E8C0020465B69E26B110702D413F040051AD0BF
:100E9C00FFF7CBFC23685A69520610D55A69606B70
:100EAC0022F040025A6150B1254B4363FFF712FD0B
:100EBC00002844D0606BBDE87040436B1847204657
:100ECC0000F0BEFB70BD00F0BBFBE56370BD160609
:100EDC0027D50D0625D594F83920212A2FD1A268C3
:100EEC00B2F5805F226A0AD11188C1F308015960FA
:100EFC00216909B9023200E00132226203E0511C7F
:100F0C00216212785A60E28C013A92B2E284B2B950
:100F1C00DA6822F08002DA60DA6842F04002DA60C5
:100F2C0070BD50060BD54A0609D5DA68204622F06A
:100F3C004002DA60202384F8393000F04DFB70BD9C
:100F4C00510F000808B5406A0023C385C38400F024
:100F5C0077FB08BD034B044A5B68C3F30313D35CF4
:100F6C00D840704700100240231D0008034B044A70
:100F7C005B68C3F30223D35CD84070470010024077
:100F8C00331D0008034B044A5B68C3F3C223D35CD4
:100F9C00D840704700100240331D0008094B5A68B6
:100FAC0002F480323AB15A68074802F40032013236
:100FBC00B0FBF2F000E005485B68C3F383430233F7
:100FCC00584370470010024000127A0000093D009F
:100FDC00044B5B6803F00C03082B01D1FFF7DEBF59
:100FEC00014870470010024000127A0008B5014613
:100FFC00FFF7EEFF0860FFF7ADFF4860FFF7B6FFA5
:10100C0088604868FFF7BEFFC86008BD4FF47A736C
:10101C00B0FBF3F0034B0022013858609A600522B4
:10102C001A60704710E000E0014B1860704700BF79
:10103C000C000020074A0002D36800F4E06023F49F
:10104C00E0631B041B0C43F0BF6343F40033034306
:10105C00D360704700ED00E0174B30B5DB68C3F38D
:10106C000223C3F107041D1D042C28BF0424062DE4
:10107C004FF0010505FA04F404F1FF348CBF033B77
:10108C0000230C409C4005FA03F3013B1A40002856
:10109C0042EA04024FEA0212AFBF00F16040074B74
:1010AC0000F00F00D2B2A5BFD2B200F561401A54C5
:1010BC0080F8002330BD00BF00ED00E014ED00E02F
:1010CC004209012300F01F0003FA00F0014B43F822
:1010DC002200704700E100E00138B0F1807F0AD2B5
:1010EC00064B074AF021586082F823100020072293
:1010FC0098601A6070470120704700BF10E000E054
:10110C0000ED00E0704708B5FFF7FCFF08BD704725
:10111C0008B5104B1A6842F001021A6059680E4A61
:10112C000A405A601A6822F0847222F480321A60E3
:10113C001A6822F480221A605A6822F4FE025A605D
:10114C004FF41F029A60054B4FF000629A60FFF754
:10115C00DEFF08BD001002400000FFF800ED00E0CB
:10116C002DE9F04106460D460C4601EB02084445BC
:10117C00A4EB050707D0336814F8011B1B68304635
:10118C0098470028F3D13846BDE8F08170B5054684
:10119C000C46084649B1FEF7E1FF2B680246214692
:1011AC002846BDE870405B68184770BD08B5FFF76E
:1011BC00EDFF08BD08B50249FFF7E8FF08BD00BF09
:1011CC003B1D000838B50546FFF7E0FF04462846EE
:1011DC00FFF7F0FF204438BD2DE9F04F164695B0CF
:1011EC009DF878401F46012C4FF0000398BF0A244D
:1011FC0001908DF84C300DF14B0BE4B200253046CC
:10120C00394622462B46FEF7B1FF30465FFA82FA8A
:10121C009046994639462B462246FEF7A7FF0F46C5
:10122C000646B9F1000F08BFB8F10A0F34BF0AF136
:10123C00300A0AF1370A5FFA8AFA56EA0703594666
:10124C000BF801A9DBD10198FFF7A0FF15B0BDE8A1
:10125C00F08F07B532B90368C9B21B6803B05DF8EB
:10126C0004EB1847D2B2009200230A46FFF7B4FFF2
:10127C0003B05DF804FB38B50546FFF7EAFF0446FA
:10128C002846FFF797FF204438BD704708B500F09B
:10129C00A3FBFFF7FAFFFFF705F9FFF729F9FCE7C6
:1012AC0000F006BC00F00CBC90F8293090F8280037
:1012BC00181A00F07F007047036810B59B6804464D
:1012CC00984720B194F82830626AD05C10BD4FF07A
:1012DC00FF3010BD90F8212090F820309A42F9D1BF
:1012EC007047036810B59B680446984758B194F84A
:1012FC002830626AD05C94F82830013303F07F0305
:10130C0084F8283010BD4FF0FF3010BD08B590F8B0
:10131C00213090F82020013303F07F039342F6D064
:10132C0090F82130C269D15490F82130013303F088
:10133C007F0380F8213090F8212090F82030013381
:10134C0003F07F039A4207D190F82030C169012243
:10135C0019444069FFF7CFFC012008BD10B54FF4CC
:10136C007A74002284600B4C80F82020426080F854
:10137C002120426180F828200276C261426280F806
:10138C002920FF22046080F82A2080F82B2001619C
:10139C0010BD00BF541D0008F0B5C36987B00446EA
:1013AC000E4615465BB9724B1A7822B9714AC26166
:1013BC0001221A7003E0802000F07AFBE061636A7E
:1013CC005BB96D4B1A7822B96C4A626201221A70B1
:1013DC0003E0802000F06CFB606263695BB9684BD2
:1013EC001A7822B9674A626101221A7003E0402020
:1013FC0000F05EFB6061236962691360624A93428C
:10140C0019D1624B2520DA68052142F48042DA605A
:10141C00DA6822F48042DA609A6942F480429A6176
:10142C009B69002203F480430393039BFFF714FE94
:10143C002520FFF745FE63691A68554B9A421AD16D
:10144C0003F5E6331A69262042F400321A611A6950
:10145C00052122F400321A61DA6942F40032DA61B1
:10146C00DB69002203F400330493049BFFF7F4FDC3
:10147C002620FFF725FE63691A68464B9A421AD15B
:10148C0003F5E4331A69272042F480221A611A69A1
:10149C00052122F480221A61DA6942F48022DA6191
:1014AC00DB69002203F480230593059BFFF7D4FD31
:1014BC002720FFF705FE94F82B30FF2B10D094F863
:1014CC002A00FF280CD0344901EBC3077F6801EBDD
:1014DC00C00251F833300097526851F8301003E0D5
:1014EC0000231A4619460093206900F00FFA05F004
:1014FC000703042B84F82C5004D0062B0CBF0823B4
:10150C00002300E0072305F03002302A606902D185
:10151C004FF4C06206E005F0200202F0FF0122B198
:10152C004FF480620261013300E0016105F00805AF
:10153C0005F0FF020DB14FF40052082BC26046605B
:10154C0004D0092B04D14FF4805300E000238360B6
:10155C000C23436100238361C361FFF79EFB0122CF
:10156C0004F118016069FFF7E5FB07B0F0BD00BF9F
:10157C0020010020A0000020A80100202101002053
:10158C00A10100200C020020003801400010024094
:10159C000044004000480040EC1D0008024B034A88
:1015AC0058691360FFF72EBCDC010020A401002059
:1015BC00024B034A58691360FFF724BCAC010020AE
:1015CC00A4010020024B034A58691360FFF71ABCB0
:1015DC004C020020A40100200B4B1B6893F8202028
:1015EC00013202F07F0283F8202093F8201093F848
:1015FC002120914207D0D86993F820100122014490
:10160C005869FFF778BB7047A40100200B490A68A2
:10161C0092F82930107E526A03F07F03D054086888
:10162C00012290F8293000F11801013303F07F03F7
:10163C0080F829304069FFF77DBB00BFA401002072
:10164C0003681A68D20708D41A68900705D41A6878
:10165C00510702D41A68120700D55B687047000066
:10166C0008B507490748FFF779FE07490748FFF710
:10167C0075FEBDE8084006490648FFF76FBE00BF7F
:10168C0000380140DC01002000440040AC01002087
:10169C00004800404C020020012810B5144604D12B
:1016AC000D48BDE81040FFF75BBD022807D10A4882
:1016BC00FFF756FD0848FFF70DFE204610BD032826
:1016CC0007D1064B186828B1BDE8104003685B6869
:1016DC001847002010BD00BFDC0100207C02002058
:1016EC00264B86B098420BD103F584339A6942F0AD
:1016FC0004029A619B6903F004030193019B3AE095
:10170C001F4B98420BD103F582339A6942F00802C1
:10171C009A619B6903F008030293029B2BE0194B1F
:10172C0098420BD103F580339A6942F010029A610A
:10173C009B6903F010030393039B1CE0124B98422C
:10174C000BD103F57C439A6942F020029A619B69A4
:10175C0003F020030493049B0DE00C4B98420AD138
:10176C0003F578439A6942F040029A619B6903F051
:10177C0040030593059B06B0704700BF000801406D
:10178C00000C014000100140001401400018014001
:10179C007FB51B4B0D4603EBC00253F83040194B81
:1017AC0056681B6813B13146204698472046FFF710
:1017BC0097FF032303930096112D1FD8DFE805F044
:1017CC000B090E12171E1E1E1E1E1E1E1E1E1E1E78
:1017DC001E1601230BE0002301930AE00023019362
:1017EC00012306E000230193022302E0112301935D
:1017FC000023694620460293FFF7B4F804B070BD8D
:10180C00EC1D0008BC0200204FF6FF721149124B70
:10181C008A800B6000238B710B8110481049086083
:10182C008A808B710B810F4900F5806008608A807B
:10183C008B710B810C4900F5806008608A808B717C
:10184C000B810A4900F5806008608A808B710B81DE
:10185C00704700BF8002002000080140000C0140CE
:10186C008C02002098020020A4020020B00200206C
:10187C00024B1B6803B11847704700BFF0020020F1
:10188C00034A536823F0040343F0E063536070474A
:10189C0000000140034A536843F0E06343F0040343
:1018AC005360704700000140034A536823F008035B
:1018BC0043F0E0635360704700000140034A5368F3
:1018CC0023F0300343F0E0635360704700000140A5
:1018DC001FB503240394089C0294079C0194069C56
:1018EC00009400F049F804B010BD70B500248C428F
:1018FC000ADA054650F8106B964203D1AA6868685C
:10190C001A6070BD0134F2E7002070BD7FB504464B
:10191C001E46012500238DE80C0002950B4602465D
:10192C0004210848FFF7D4FF02230193089B02957A
:10193C0000932246334604210348FFF7C9FF04B045
:10194C0070BD00BF6C1D0008AC1D000870B5049D77
:10195C0000248C420DDA0668964207D146689E42F6
:10196C0004D18668AE4201D1C06870BD013410301C
:10197C00EFE7002070BD0000F0B51C46154B87B09A
:10198C001B6805460E46174613B10C99204698471E
:10199C0034B90CAB3A4631462846FFF7A6FF04464D
:1019AC002046FFF79DFE0C9B02A902930D9B20463F
:1019BC0003930E9B04930F9B0593FEF7D3FF0C9B95
:1019CC003A460093314623462846FFF7BFFF80472F
:1019DC0007B0F0BDBC02002008B5FEF757FFBDE80C
:1019EC000840FEF769BE08B5FEF762FFBDE8084087
:1019FC00FFF789BB1A4B07B59A69032042F0010225
:101A0C009A619B6903F001030193019BFFF712FBA1
:101A1C00002211466FF00B00FFF71EFB002211464F
:101A2C006FF00A00FFF718FB002211466FF0090057
:101A3C00FFF712FB002211466FF00400FFF70CFBBE
:101A4C00002211466FF00300FFF706FB002211463F
:101A5C006FF00100FFF700FB03B05DF804FB00BF63
:101A6C00001002400E4B70B51E460E4C0025E41AB9
:101A7C00A410A54204D056F8253098470135F8E754
:101A8C0000F016F9084B094C1E46E41AA410002568
:101A9C00A54204D056F8253098470135F8E770BDBB
:101AAC00801F0008801F0008801F0008901F00087E
:101ABC00024B0146186800F057B800BF70000020B8
:101ACC00024B0146186800F003B800BF70000020FC
:101ADC0038B50546002944D051F8043C0C1F002BA6
:101AEC00B8BFE41800F0D0F81E4A1368114613B9B9
:101AFC006360146030E0A3420DD92268A0188342C1
:101B0C0001BF18685B681218226063600C6023E0E8
:101B1C00A24203D813465A68002AF9D1186819183A
:101B2C00A1420BD12168014458188242196013D18B
:101B3C0010685268014419605A600DE002D90C23F8
:101B4C002B6009E021686018824201BF106852685E
:101B5C000918216062605C602846BDE8384000F0DE
:101B6C0094B838BDC402002070B5CD1C25F0030517
:101B7C0008350C2D38BF0C25002D064601DBA9427B
:101B8C0002D90C23336046E000F07EF8234B1C682E
:101B9C001A462146A1B10B685B1B0ED40B2B03D943
:101BAC000B60CC18CD501EE08C420BBF63684B68A9
:101BBC001360636018BF0C4615E00C464968E9E7F2
:101BCC00174C23681BB9304600F02CF820602946CE
:101BDC00304600F027F8431C18D0C41C24F0030432
:101BEC00A0420DD12560304600F04FF804F10B00F7
:101BFC00231D20F00700C31A0ED05A42E25070BDCC
:101C0C00211A304600F00EF80130EBD10C23336072
:101C1C00304600F03AF8002070BD00BFC40200202E
:101C2C00C002002038B5064C002305460846236048
:101C3C00FEF7BAFD431C02D1236803B12B6038BDFB
:101C4C00F8020020024B0A460146186800F01EB844
:101C5C0070000020024B0A460146186800F002B8DA
:101C6C007000002038B5074C002305460846114685
:101C7C002360FEF7B7FD431C02D1236803B12B6030
:101C8C0038BD00BFF80200207047704738B5074CCC
:101C9C0000230546084611462360FEF7BBFD431C96
:101CAC0002D1236803B12B6038BD00BFF8020020BD
:101CBC00F8B500BFF8BC08BC9E467047F8B500BF2D
:081CCC00F8BC08BC9E467047FD
:101CD4004170706C69636174696F6E2073746172B2
:101CE400742E2E2E002D2D2D2D0054696D6572201D
:101CF40062617365206672657175656E63793A0019
:101D040054696D6572207072657363616C65723AB3
:101D14000054696D657220706572696F643A0000E1
:101D24000000000000000001020304060708090087
:101D3400000000010203040D0A006F7666006E6164
:101D44006E00696E660000000000000000000000E4
:101D5400191300086D110008B5120008EF120008ED
:101D6400C5120008E11200080038014000080140D3
:101D7400000400008D18000800380140000C0140E8
:101D840080000000A1180008004400400008014041
:101D940008000000B518000800480040000C01408D
:101DA40000080000C918000800380140000801407C
:101DB400000200008D18000800380140000C0140AA
:101DC40040000000A1180008004400400008014041
:101DD40004000000B518000800480040000C014051
:101DE40000040000C91800080008014001000000B8
:101DF4000008014002000000000801400400000047
:101E04000008014008000000000801401000000024
:101E140000080140200000000008014040000000CC
:101E2400000801408000000000080140000100009B
:101E34000008014000020000000801400004000006
:101E440000080140000800000008014000100000E4
:101E5400000801400020000000080140004000008C
:101E64000008014000800000000C01400100000057
:101E7400000C014002000000000C014004000000BE
:101E8400000C014008000000000C0140100000009C
:101E9400000C014020000000000C01404000000044
:101EA400000C014080000000000C01400001000013
:101EB400000C014000020000000C0140000400007E
:101EC400000C014000080000000C0140001000005C
:101ED400000C014000200000000C01400040000004
:101EE400000C0140008000000010014000200000B0
:101EF400001001400040000000100140008000007C
:101F04000014014001000000001401400200000020
:101F1400430000000000000000000000000000007A
:101F240000000000000000000000000000000000AD
:101F3400000000000000000000000000000000009D
:101F4400000000000000000000000000000000008D
:101F5400000000000000000000000000000000007D
:101F6400000000000000000000000000000000006D
:041F74000000000069
:081F780030E2FF7F01000000D0
:101F800031010008B50600086D1600081518000894
:041F90000D01000837
:101F940000030020100000000100000000A24A0419
:101FA40000000000181F0008381F0008581F000810
:101FB400000000000000000000000000000000001D
:101FC400141F0008000000000000000000000000D2
:101FD40000000000000000000000000000000000FD
:101FE40000000000000000000000000000000000ED
:101FF40000000000000000000000000000000000DD
:0420040010000020A8
:04000005080007697F
:00000001FF
